{
  "transactions": [
    {
      "hash": "0x4630295f67275ea7593e9a02f3d1dc26e73c887682a897cb446e9bf99f08b356",
      "transactionType": "CALL",
      "contractName": "TransparentUpgradeableProxy",
      "contractAddress": "0x52629961F71C1C2564C5aa22372CB1b9fa9EBA3E",
      "function": "setRewardAllowlistAddress(address,bool)",
      "arguments": [
        "0x8C934b7dBc782568d14ceaBbEAeDF37cB6348615",
        "true"
      ],
      "transaction": {
        "type": "0x02",
        "from": "0x017f8ad14a2e745ea0f756bd57cd4852400be78c",
        "to": "0x52629961f71c1c2564c5aa22372cb1b9fa9eba3e",
        "gas": "0x1219b",
        "value": "0x0",
        "data": "0xd693e8d30000000000000000000000008c934b7dbc782568d14ceabbeaedf37cb63486150000000000000000000000000000000000000000000000000000000000000001",
        "nonce": "0xfc",
        "accessList": []
      },
      "additionalContracts": [],
      "isFixedGasLimit": false
    }
  ],
  "receipts": [
    {
      "transactionHash": "0x4630295f67275ea7593e9a02f3d1dc26e73c887682a897cb446e9bf99f08b356",
      "transactionIndex": "0x5",
      "blockHash": "0x1f7282be80289697881070a477b1b3dedfc6c5790cde324a4d3b3beb2a1e5807",
      "blockNumber": "0x4723f9",
      "from": "0x017F8Ad14A2E745ea0F756Bd57CD4852400be78c",
      "to": "0x52629961F71C1C2564C5aa22372CB1b9fa9EBA3E",
      "cumulativeGasUsed": "0xec32b",
      "gasUsed": "0xd1ac",
      "contractAddress": null,
      "logs": [],
      "status": "0x1",
      "logsBloom": "0x00000000000000000000000000000000000000000000000000000000000000000000000000000000000000000000000000000000000000000000000000000000000000000000000000000000000000000000000000000000000000000000000000000000000000000000000000000000000000000000000000000000000000000000000000000000000000000000000000000000000000000000000000000000000000000000000000000000000000000000000000000000000000000000000000000000000000000000000000000000000000000000000000000000000000000000000000000000000000000000000000000000000000000000000000000000",
      "type": "0x2",
      "effectiveGasPrice": "0xb2d05e0a"
    }
  ],
  "libraries": [],
  "pending": [],
  "returns": {},
  "timestamp": 1699565515,
  "chain": 11155111,
  "multi": false,
  "commit": "0c4da52"
}