{
  "transactions": [
    {
      "hash": "0x63d61506389865f872d1323eea3004295a5dfc10c8924a31069236b8fe2d735c",
      "transactionType": "CALL",
      "contractName": null,
      "contractAddress": "0x52629961f71c1c2564c5aa22372cb1b9fa9eba3e",
      "function": "setQuestFee(uint16)",
      "arguments": [
        "250"
      ],
      "transaction": {
        "from": "0x017f8ad14a2e745ea0f756bd57cd4852400be78c",
        "to": "0x52629961f71c1c2564c5aa22372cb1b9fa9eba3e",
        "gas": "0xd211",
        "value": "0x0",
        "input": "0xe1bc3aba00000000000000000000000000000000000000000000000000000000000000fa",
        "nonce": "0x13",
        "chainId": "0x27bc86aa"
      },
      "additionalContracts": [],
      "isFixedGasLimit": false
    }
  ],
  "receipts": [
    {
      "status": "0x1",
      "cumulativeGasUsed": "0x8fa3",
      "logs": [],
      "logsBloom": "0x00000000000000000000000000000000000000000000000000000000000000000000000000000000000000000000000000000000000000000000000000000000000000000000000000000000000000000000000000000000000000000000000000000000000000000000000000000000000000000000000000000000000000000000000000000000000000000000000000000000000000000000000000000000000000000000000000000000000000000000000000000000000000000000000000000000000000000000000000000000000000000000000000000000000000000000000000000000000000000000000000000000000000000000000000000000",
      "type": "0x2",
      "transactionHash": "0x63d61506389865f872d1323eea3004295a5dfc10c8924a31069236b8fe2d735c",
      "transactionIndex": "0x1",
      "blockHash": "0xe871a6bdd456cff16d935a34cc3925a8511e7a2383814608232342f25bcf171d",
      "blockNumber": "0x1635d9b",
      "gasUsed": "0x8fa3",
      "effectiveGasPrice": "0x174876e800",
      "from": "0x017f8ad14a2e745ea0f756bd57cd4852400be78c",
      "to": "0x52629961f71c1c2564c5aa22372cb1b9fa9eba3e",
      "contractAddress": null,
      "gasUsedForL1": "0x0",
      "l1BlockNumber": "0xf8ff30"
    }
  ],
  "libraries": [],
  "pending": [],
  "returns": {},
  "timestamp": 1719425865,
  "chain": 666666666,
  "commit": "6cb07c2"
}