{
  "transactions": [
    {
      "hash": "0x9f61dfa54ee7af99219f34c400e456776aa2130265469fdde77feaed667e6889",
      "transactionType": "CALL",
      "contractName": "QuestFactory",
      "contractAddress": "0x52629961f71c1c2564c5aa22372cb1b9fa9eba3e",
      "function": "setReferralRewardFee(uint16)",
      "arguments": [
        "250"
      ],
      "transaction": {
        "from": "0x017f8ad14a2e745ea0f756bd57cd4852400be78c",
        "to": "0x52629961f71c1c2564c5aa22372cb1b9fa9eba3e",
        "gas": "0x11dae",
        "value": "0x0",
        "input": "0x086575ae00000000000000000000000000000000000000000000000000000000000000fa",
        "nonce": "0x1c",
        "chainId": "0x27bc86aa"
      },
      "additionalContracts": [],
      "isFixedGasLimit": false
    }
  ],
  "receipts": [
    {
      "status": "0x1",
      "cumulativeGasUsed": "0xced4",
      "logs": [],
      "logsBloom": "0x00000000000000000000000000000000000000000000000000000000000000000000000000000000000000000000000000000000000000000000000000000000000000000000000000000000000000000000000000000000000000000000000000000000000000000000000000000000000000000000000000000000000000000000000000000000000000000000000000000000000000000000000000000000000000000000000000000000000000000000000000000000000000000000000000000000000000000000000000000000000000000000000000000000000000000000000000000000000000000000000000000000000000000000000000000000",
      "type": "0x2",
      "transactionHash": "0x9f61dfa54ee7af99219f34c400e456776aa2130265469fdde77feaed667e6889",
      "transactionIndex": "0x1",
      "blockHash": "0xb95839a3a4c3e119e5b82858484de4a07886c167d301fb3695050c4aed3d2b31",
      "blockNumber": "0x167bfd9",
      "gasUsed": "0xced4",
      "effectiveGasPrice": "0x174876e800",
      "from": "0x017f8ad14a2e745ea0f756bd57cd4852400be78c",
      "to": "0x52629961f71c1c2564c5aa22372cb1b9fa9eba3e",
      "contractAddress": null,
      "gasUsedForL1": "0x0",
      "l1BlockNumber": "0x1079a2f"
    }
  ],
  "libraries": [],
  "pending": [],
  "returns": {},
  "timestamp": 1721340231,
  "chain": 666666666,
  "commit": "f8647fa"
}