{
  "transactions": [
    {
      "hash": "0x31fb598aea909bdb5c73b62f9170a9b8adb18bab04ea3f151121ad8df4f2029b",
      "transactionType": "CALL",
      "contractName": null,
      "contractAddress": "0x52629961F71C1C2564C5aa22372CB1b9fa9EBA3E",
      "function": "setMintFee(uint256)",
      "arguments": [
        "0"
      ],
      "transaction": {
        "type": "0x02",
        "from": "0x017f8ad14a2e745ea0f756bd57cd4852400be78c",
        "to": "0x52629961f71c1c2564c5aa22372cb1b9fa9eba3e",
        "gas": "0xbc70",
        "value": "0x0",
        "data": "0xeddd0d9c0000000000000000000000000000000000000000000000000000000000000000",
        "nonce": "0xe",
        "accessList": []
      },
      "additionalContracts": [],
      "isFixedGasLimit": false
    }
  ],
  "receipts": [
    {
      "transactionHash": "0x31fb598aea909bdb5c73b62f9170a9b8adb18bab04ea3f151121ad8df4f2029b",
      "transactionIndex": "0x2",
      "blockHash": "0x37fcd7e4e6ebd46b798810721398fee117cfd822f9d38cb690f4388e9561025f",
      "blockNumber": "0x15b639d",
      "from": "0x017F8Ad14A2E745ea0F756Bd57CD4852400be78c",
      "to": "0x52629961F71C1C2564C5aa22372CB1b9fa9EBA3E",
      "cumulativeGasUsed": "0x850ca",
      "gasUsed": "0x80e2",
      "contractAddress": null,
      "logs": [
        {
          "address": "0x52629961F71C1C2564C5aa22372CB1b9fa9EBA3E",
          "topics": [
            "0x97aee230ba41961438e908e115df76fa8113f85a0586d85b19ba5be50e6a2274"
          ],
          "data": "0x0000000000000000000000000000000000000000000000000000000000000000",
          "blockHash": "0x37fcd7e4e6ebd46b798810721398fee117cfd822f9d38cb690f4388e9561025f",
          "blockNumber": "0x15b639d",
          "transactionHash": "0x31fb598aea909bdb5c73b62f9170a9b8adb18bab04ea3f151121ad8df4f2029b",
          "transactionIndex": "0x2",
          "logIndex": "0x0",
          "removed": false
        }
      ],
      "status": "0x1",
      "logsBloom": "0x00000000000000000000000000000000000000000000000000000000000000000000000000000000000000000000000000000000000000002000000000000000000080000000000000000000000000000000000000000000000400000000000000000002000000000000000000000000000000000000000080000000000000000000000000000000000000000000000000000000000000000000000000000000000000000000000000000000000000000000000000000000000000000000000000000000000000000000000000000000002000000000000000000000000000000000000000000000000000000000000000000000000000000000000000000000",
      "type": "0x2",
      "effectiveGasPrice": "0x989680"
    }
  ],
  "libraries": [],
  "pending": [],
  "returns": {},
  "timestamp": 1717691248,
  "chain": 666666666,
  "commit": "7d7f9c6"
}