{
  "transactions": [
    {
      "hash": "0xd74e4a9c486f179f2febf110d56cb7e530d4158c01acdf7eebec1713ac6ea9f3",
      "transactionType": "CALL",
      "contractName": null,
      "contractAddress": "0x52629961f71c1c2564c5aa22372cb1b9fa9eba3e",
      "function": "setQuestFee(uint16)",
      "arguments": [
        "250"
      ],
      "transaction": {
        "from": "0x017f8ad14a2e745ea0f756bd57cd4852400be78c",
        "to": "0x52629961f71c1c2564c5aa22372cb1b9fa9eba3e",
        "gas": "0xd211",
        "value": "0x0",
        "input": "0xe1bc3aba00000000000000000000000000000000000000000000000000000000000000fa",
        "nonce": "0xd",
        "chainId": "0x1d88"
      },
      "additionalContracts": [],
      "isFixedGasLimit": false
    }
  ],
  "receipts": [
    {
      "status": "0x1",
      "cumulativeGasUsed": "0x13aee",
      "logs": [],
      "logsBloom": "0x00000000000000000000000000000000000000000000000000000000000000000000000000000000000000000000000000000000000000000000000000000000000000000000000000000000000000000000000000000000000000000000000000000000000000000000000000000000000000000000000000000000000000000000000000000000000000000000000000000000000000000000000000000000000000000000000000000000000000000000000000000000000000000000000000000000000000000000000000000000000000000000000000000000000000000000000000000000000000000000000000000000000000000000000000000000",
      "type": "0x2",
      "transactionHash": "0xd74e4a9c486f179f2febf110d56cb7e530d4158c01acdf7eebec1713ac6ea9f3",
      "transactionIndex": "0x1",
      "blockHash": "0x949cb217e4b19b3c633b69346066b6e4f0deb08232953749b7f6b202c1217051",
      "blockNumber": "0x2dc550",
      "gasUsed": "0x8fa3",
      "effectiveGasPrice": "0xf433c",
      "from": "0x017f8ad14a2e745ea0f756bd57cd4852400be78c",
      "to": "0x52629961f71c1c2564c5aa22372cb1b9fa9eba3e",
      "contractAddress": null,
      "l1Fee": "0xe97e9a8d6c",
      "l1GasPrice": "0x17f905e15",
      "l1GasUsed": "0x79c"
    }
  ],
  "libraries": [],
  "pending": [],
  "returns": {},
  "timestamp": 1719427835,
  "chain": 7560,
  "commit": "9f10ed7"
}