{
  "transactions": [
    {
      "hash": "0x91ddf0e016e8b7c3ec65444841222ca193b8329e44764c968e2ca4ee3794efe7",
      "transactionType": "CALL",
      "contractName": null,
      "contractAddress": "0x52629961f71c1c2564c5aa22372cb1b9fa9eba3e",
      "function": "setReferralRewardFee(uint16)",
      "arguments": [
        "250"
      ],
      "transaction": {
        "from": "0x017f8ad14a2e745ea0f756bd57cd4852400be78c",
        "to": "0x52629961f71c1c2564c5aa22372cb1b9fa9eba3e",
        "gas": "0x11dae",
        "value": "0x0",
        "input": "0x086575ae00000000000000000000000000000000000000000000000000000000000000fa",
        "nonce": "0x17",
        "chainId": "0x1d88"
      },
      "additionalContracts": [],
      "isFixedGasLimit": false
    }
  ],
  "receipts": [
    {
      "status": "0x1",
      "cumulativeGasUsed": "0x19abf",
      "logs": [],
      "logsBloom": "0x00000000000000000000000000000000000000000000000000000000000000000000000000000000000000000000000000000000000000000000000000000000000000000000000000000000000000000000000000000000000000000000000000000000000000000000000000000000000000000000000000000000000000000000000000000000000000000000000000000000000000000000000000000000000000000000000000000000000000000000000000000000000000000000000000000000000000000000000000000000000000000000000000000000000000000000000000000000000000000000000000000000000000000000000000000000",
      "type": "0x2",
      "transactionHash": "0x91ddf0e016e8b7c3ec65444841222ca193b8329e44764c968e2ca4ee3794efe7",
      "transactionIndex": "0x1",
      "blockHash": "0x0935cf942f361e99343a621c998d5eb6450533ca4c56fcf5b5a10366db9ac025",
      "blockNumber": "0x3c5e25",
      "gasUsed": "0xced4",
      "effectiveGasPrice": "0xfd",
      "from": "0x017f8ad14a2e745ea0f756bd57cd4852400be78c",
      "to": "0x52629961f71c1c2564c5aa22372cb1b9fa9eba3e",
      "contractAddress": null,
      "l1Fee": "0x1f81b80dd30",
      "l1GasPrice": "0x1a882f341",
      "l1GasUsed": "0x76c"
    }
  ],
  "libraries": [],
  "pending": [],
  "returns": {},
  "timestamp": 1721341093,
  "chain": 7560,
  "commit": "f8647fa"
}