{
  "transactions": [
    {
      "hash": "0x546b7506e0067edcfdbd57df7c8f147c0976999bba9f9c9a053f94b2a6abcd17",
      "transactionType": "CALL",
      "contractName": null,
      "contractAddress": "0x52629961F71C1C2564C5aa22372CB1b9fa9EBA3E",
      "function": "setMintFee(uint256)",
      "arguments": [
        "0"
      ],
      "transaction": {
        "type": "0x02",
        "from": "0x017f8ad14a2e745ea0f756bd57cd4852400be78c",
        "to": "0x52629961f71c1c2564c5aa22372cb1b9fa9eba3e",
        "gas": "0xbc70",
        "value": "0x0",
        "data": "0xeddd0d9c0000000000000000000000000000000000000000000000000000000000000000",
        "nonce": "0x1e",
        "accessList": []
      },
      "additionalContracts": [],
      "isFixedGasLimit": false
    }
  ],
  "receipts": [
    {
      "transactionHash": "0x546b7506e0067edcfdbd57df7c8f147c0976999bba9f9c9a053f94b2a6abcd17",
      "transactionIndex": "0x1",
      "blockHash": "0x96d156b92464049b03cc5b0a1c17fc46e46af14c622125f77cb20d26036e7088",
      "blockNumber": "0xec8034",
      "from": "0x017F8Ad14A2E745ea0F756Bd57CD4852400be78c",
      "to": "0x52629961F71C1C2564C5aa22372CB1b9fa9EBA3E",
      "cumulativeGasUsed": "0x12c24",
      "gasUsed": "0x80d9",
      "contractAddress": null,
      "logs": [
        {
          "address": "0x52629961F71C1C2564C5aa22372CB1b9fa9EBA3E",
          "topics": [
            "0x97aee230ba41961438e908e115df76fa8113f85a0586d85b19ba5be50e6a2274"
          ],
          "data": "0x0000000000000000000000000000000000000000000000000000000000000000",
          "blockHash": "0x96d156b92464049b03cc5b0a1c17fc46e46af14c622125f77cb20d26036e7088",
          "blockNumber": "0xec8034",
          "transactionHash": "0x546b7506e0067edcfdbd57df7c8f147c0976999bba9f9c9a053f94b2a6abcd17",
          "transactionIndex": "0x1",
          "logIndex": "0x0",
          "removed": false
        }
      ],
      "status": "0x1",
      "logsBloom": "0x00000000000000000000000000000000000000000000000000000000000000000000000000000000000000000000000000000000000000002000000000000000000080000000000000000000000000000000000000000000000400000000000000000002000000000000000000000000000000000000000080000000000000000000000000000000000000000000000000000000000000000000000000000000000000000000000000000000000000000000000000000000000000000000000000000000000000000000000000000000002000000000000000000000000000000000000000000000000000000000000000000000000000000000000000000000",
      "type": "0x2",
      "effectiveGasPrice": "0xb2d05efc"
    }
  ],
  "libraries": [],
  "pending": [],
  "returns": {},
  "timestamp": 1717692473,
  "chain": 7777777,
  "commit": "7d7f9c6"
}